{
  "transactions": [
    {
      "hash": "0x9ff19b88bfe80e982b58bc48f8a5ab164c64c35d23c51a5311754bd24109cfc5",
      "transactionType": "CREATE",
      "contractName": "StakingPool",
      "contractAddress": "0x539be46d9e2d9fa93f54944216bef6e6a0f6a952",
      "function": null,
      "arguments": [
        "0xBC80C18E833377221709401f105FdA42553a6cab",
        "0xF16224Acdcf403Fb1DE39908cBE6B9Efa3516Ce0",
        "0x337aDEFa859e38f297adF7FeAC1725c55E1309f8"
      ],
      "transaction": {
        "from": "0x337adefa859e38f297adf7feac1725c55e1309f8",
        "gas": "0x1445b7",
        "value": "0x0",
        "input": "0x60c060405234801561000f575f5ffd5b5060405161140638038061140683398181016040528101906100319190610241565b805f73ffffffffffffffffffffffffffffffffffffffff168173ffffffffffffffffffffffffffffffffffffffff16036100a2575f6040517f1e4fbdf700000000000000000000000000000000000000000000000000000000815260040161009991906102a0565b60405180910390fd5b6100b18161012260201b60201c565b508273ffffffffffffffffffffffffffffffffffffffff1660808173ffffffffffffffffffffffffffffffffffffffff16815250508173ffffffffffffffffffffffffffffffffffffffff1660a08173ffffffffffffffffffffffffffffffffffffffff16815250505050506102b9565b5f5f5f9054906101000a900473ffffffffffffffffffffffffffffffffffffffff169050815f5f6101000a81548173ffffffffffffffffffffffffffffffffffffffff021916908373ffffffffffffffffffffffffffffffffffffffff1602179055508173ffffffffffffffffffffffffffffffffffffffff168173ffffffffffffffffffffffffffffffffffffffff167f8be0079c531659141344cd1fd0a4f28419497f9722a3daafe3b4186f6b6457e060405160405180910390a35050565b5f5ffd5b5f73ffffffffffffffffffffffffffffffffffffffff82169050919050565b5f610210826101e7565b9050919050565b61022081610206565b811461022a575f5ffd5b50565b5f8151905061023b81610217565b92915050565b5f5f5f60608486031215610258576102576101e3565b5b5f6102658682870161022d565b93505060206102768682870161022d565b92505060406102878682870161022d565b9150509250925092565b61029a81610206565b82525050565b5f6020820190506102b35f830184610291565b92915050565b60805160a0516110f46103125f395f81816101d7015281816102c2015281816103eb0152818161049701526105ea01525f818161034f015281816105a3015281816106d60152818161076e015261081701526110f45ff3fe608060405234801561000f575f5ffd5b5060043610610091575f3560e01c8063a694fc3a11610064578063a694fc3a146100f7578063ddc6326214610113578063e6f0ff781461012f578063f2fde38b1461014d578063fc9f394a1461016957610091565b80632e17de781461009557806346be35db146100b1578063715018a6146100cf5780638da5cb5b146100d9575b5f5ffd5b6100af60048036038101906100aa9190610bd4565b610187565b005b6100b96103e9565b6040516100c69190610c79565b60405180910390f35b6100d761040d565b005b6100e1610420565b6040516100ee9190610cb2565b60405180910390f35b610111600480360381019061010c9190610bd4565b610447565b005b61012d60048036038101906101289190610bd4565b6106c6565b005b61013761076c565b6040516101449190610ceb565b60405180910390f35b61016760048036038101906101629190610d2e565b610790565b005b610171610814565b60405161017e9190610d68565b60405180910390f35b5f81116101c9576040517f08c379a00000000000000000000000000000000000000000000000000000000081526004016101c090610ddb565b60405180910390fd5b5f6101d2610814565b90505f7f000000000000000000000000000000000000000000000000000000000000000073ffffffffffffffffffffffffffffffffffffffff166318160ddd6040518163ffffffff1660e01b8152600401602060405180830381865afa15801561023e573d5f5f3e3d5ffd5b505050506040513d601f19601f820116820180604052508101906102629190610e0d565b90505f8183856102729190610e65565b61027c9190610ed3565b90505f81116102c0576040517f08c379a00000000000000000000000000000000000000000000000000000000081526004016102b790610f4d565b60405180910390fd5b7f000000000000000000000000000000000000000000000000000000000000000073ffffffffffffffffffffffffffffffffffffffff166379cc679033866040518363ffffffff1660e01b815260040161031b929190610f6b565b5f604051808303815f87803b158015610332575f5ffd5b505af1158015610344573d5f5f3e3d5ffd5b5050505061039333827f000000000000000000000000000000000000000000000000000000000000000073ffffffffffffffffffffffffffffffffffffffff166108b29092919063ffffffff16565b3373ffffffffffffffffffffffffffffffffffffffff167f7fc4727e062e336010f2c282598ef5f14facb3de68cf8195c2f23e1454b2b74e85836040516103db929190610f92565b60405180910390a250505050565b7f000000000000000000000000000000000000000000000000000000000000000081565b610415610931565b61041e5f6109b8565b565b5f5f5f9054906101000a900473ffffffffffffffffffffffffffffffffffffffff16905090565b5f8111610489576040517f08c379a000000000000000000000000000000000000000000000000000000000815260040161048090611003565b60405180910390fd5b5f610492610814565b90505f7f000000000000000000000000000000000000000000000000000000000000000073ffffffffffffffffffffffffffffffffffffffff166318160ddd6040518163ffffffff1660e01b8152600401602060405180830381865afa1580156104fe573d5f5f3e3d5ffd5b505050506040513d601f19601f820116820180604052508101906105229190610e0d565b90505f5f82148061053257505f83145b1561053f57839050610559565b82828561054c9190610e65565b6105569190610ed3565b90505b5f811161059b576040517f08c379a00000000000000000000000000000000000000000000000000000000081526004016105929061106b565b60405180910390fd5b6105e83330867f000000000000000000000000000000000000000000000000000000000000000073ffffffffffffffffffffffffffffffffffffffff16610a79909392919063ffffffff16565b7f000000000000000000000000000000000000000000000000000000000000000073ffffffffffffffffffffffffffffffffffffffff166340c10f1933836040518363ffffffff1660e01b8152600401610643929190610f6b565b5f604051808303815f87803b15801561065a575f5ffd5b505af115801561066c573d5f5f3e3d5ffd5b505050503373ffffffffffffffffffffffffffffffffffffffff167f1449c6dd7851abc30abf37f57715f492010519147cc2652fbc38202c18a6ee9085836040516106b8929190610f92565b60405180910390a250505050565b6106ce610931565b61071b3330837f000000000000000000000000000000000000000000000000000000000000000073ffffffffffffffffffffffffffffffffffffffff16610a79909392919063ffffffff16565b3373ffffffffffffffffffffffffffffffffffffffff167f121c5042302bae5fc561fbc64368f297ca60a880878e1e3a7f7e9380377260bf826040516107619190610d68565b60405180910390a250565b7f000000000000000000000000000000000000000000000000000000000000000081565b610798610931565b5f73ffffffffffffffffffffffffffffffffffffffff168173ffffffffffffffffffffffffffffffffffffffff1603610808575f6040517f1e4fbdf70000000000000000000000000000000000000000000000000000000081526004016107ff9190610cb2565b60405180910390fd5b610811816109b8565b50565b5f7f000000000000000000000000000000000000000000000000000000000000000073ffffffffffffffffffffffffffffffffffffffff166370a08231306040518263ffffffff1660e01b815260040161086e9190610cb2565b602060405180830381865afa158015610889573d5f5f3e3d5ffd5b505050506040513d601f19601f820116820180604052508101906108ad9190610e0d565b905090565b61092c838473ffffffffffffffffffffffffffffffffffffffff1663a9059cbb85856040516024016108e5929190610f6b565b604051602081830303815290604052915060e01b6020820180517bffffffffffffffffffffffffffffffffffffffffffffffffffffffff8381831617835250505050610afb565b505050565b610939610b96565b73ffffffffffffffffffffffffffffffffffffffff16610957610420565b73ffffffffffffffffffffffffffffffffffffffff16146109b65761097a610b96565b6040517f118cdaa70000000000000000000000000000000000000000000000000000000081526004016109ad9190610cb2565b60405180910390fd5b565b5f5f5f9054906101000a900473ffffffffffffffffffffffffffffffffffffffff169050815f5f6101000a81548173ffffffffffffffffffffffffffffffffffffffff021916908373ffffffffffffffffffffffffffffffffffffffff1602179055508173ffffffffffffffffffffffffffffffffffffffff168173ffffffffffffffffffffffffffffffffffffffff167f8be0079c531659141344cd1fd0a4f28419497f9722a3daafe3b4186f6b6457e060405160405180910390a35050565b610af5848573ffffffffffffffffffffffffffffffffffffffff166323b872dd868686604051602401610aae93929190611089565b604051602081830303815290604052915060e01b6020820180517bffffffffffffffffffffffffffffffffffffffffffffffffffffffff8381831617835250505050610afb565b50505050565b5f5f60205f8451602086015f885af180610b1a576040513d5f823e3d81fd5b3d92505f519150505f8214610b33576001811415610b4e565b5f8473ffffffffffffffffffffffffffffffffffffffff163b145b15610b9057836040517f5274afe7000000000000000000000000000000000000000000000000000000008152600401610b879190610cb2565b60405180910390fd5b50505050565b5f33905090565b5f5ffd5b5f819050919050565b610bb381610ba1565b8114610bbd575f5ffd5b50565b5f81359050610bce81610baa565b92915050565b5f60208284031215610be957610be8610b9d565b5b5f610bf684828501610bc0565b91505092915050565b5f73ffffffffffffffffffffffffffffffffffffffff82169050919050565b5f819050919050565b5f610c41610c3c610c3784610bff565b610c1e565b610bff565b9050919050565b5f610c5282610c27565b9050919050565b5f610c6382610c48565b9050919050565b610c7381610c59565b82525050565b5f602082019050610c8c5f830184610c6a565b92915050565b5f610c9c82610bff565b9050919050565b610cac81610c92565b82525050565b5f602082019050610cc55f830184610ca3565b92915050565b5f610cd582610c48565b9050919050565b610ce581610ccb565b82525050565b5f602082019050610cfe5f830184610cdc565b92915050565b610d0d81610c92565b8114610d17575f5ffd5b50565b5f81359050610d2881610d04565b92915050565b5f60208284031215610d4357610d42610b9d565b5b5f610d5084828501610d1a565b91505092915050565b610d6281610ba1565b82525050565b5f602082019050610d7b5f830184610d59565b92915050565b5f82825260208201905092915050565b7f43616e6e6f7420756e7374616b652030000000000000000000000000000000005f82015250565b5f610dc5601083610d81565b9150610dd082610d91565b602082019050919050565b5f6020820190508181035f830152610df281610db9565b9050919050565b5f81519050610e0781610baa565b92915050565b5f60208284031215610e2257610e21610b9d565b5b5f610e2f84828501610df9565b91505092915050565b7f4e487b71000000000000000000000000000000000000000000000000000000005f52601160045260245ffd5b5f610e6f82610ba1565b9150610e7a83610ba1565b9250828202610e8881610ba1565b91508282048414831517610e9f57610e9e610e38565b5b5092915050565b7f4e487b71000000000000000000000000000000000000000000000000000000005f52601260045260245ffd5b5f610edd82610ba1565b9150610ee883610ba1565b925082610ef857610ef7610ea6565b5b828204905092915050565b7f496e73756666696369656e7420616d6f756e74000000000000000000000000005f82015250565b5f610f37601383610d81565b9150610f4282610f03565b602082019050919050565b5f6020820190508181035f830152610f6481610f2b565b9050919050565b5f604082019050610f7e5f830185610ca3565b610f8b6020830184610d59565b9392505050565b5f604082019050610fa55f830185610d59565b610fb26020830184610d59565b9392505050565b7f43616e6e6f74207374616b6520300000000000000000000000000000000000005f82015250565b5f610fed600e83610d81565b9150610ff882610fb9565b602082019050919050565b5f6020820190508181035f83015261101a81610fe1565b9050919050565b7f496e73756666696369656e7420736861726573000000000000000000000000005f82015250565b5f611055601383610d81565b915061106082611021565b602082019050919050565b5f6020820190508181035f83015261108281611049565b9050919050565b5f60608201905061109c5f830186610ca3565b6110a96020830185610ca3565b6110b66040830184610d59565b94935050505056fea2646970667358221220ae51c7d498abe932dbdf6b5245b7cfc05b9b8bdc5c256de37b5ea8f16e10160e64736f6c634300081e0033000000000000000000000000bc80c18e833377221709401f105fda42553a6cab000000000000000000000000f16224acdcf403fb1de39908cbe6b9efa3516ce0000000000000000000000000337adefa859e38f297adf7feac1725c55e1309f8",
        "nonce": "0x1b",
        "chainId": "0xaa36a7"
      },
      "additionalContracts": [],
      "isFixedGasLimit": false
    },
    {
      "hash": "0x29d80813684877a9e717255e5c43074902cc5f69ea6bb844b358128766febf99",
      "transactionType": "CALL",
      "contractName": "DepositController",
      "contractAddress": "0x97d3d998e4d05a5b22a31d01ff066dd9890ce205",
      "function": "setStakingPool(address)",
      "arguments": [
        "0x539be46D9E2d9FA93f54944216BEf6e6A0f6a952"
      ],
      "transaction": {
        "from": "0x337adefa859e38f297adf7feac1725c55e1309f8",
        "to": "0x97d3d998e4d05a5b22a31d01ff066dd9890ce205",
        "gas": "0xa3fa",
        "value": "0x0",
        "input": "0x3028f63a000000000000000000000000539be46d9e2d9fa93f54944216bef6e6a0f6a952",
        "nonce": "0x1c",
        "chainId": "0xaa36a7"
      },
      "additionalContracts": [],
      "isFixedGasLimit": false
    },
    {
      "hash": "0x7f74c58fe31899b6f28031f7788b7e76740986aad7c443e9a545bc9bd3dcd48c",
      "transactionType": "CALL",
      "contractName": null,
      "contractAddress": "0xf16224acdcf403fb1de39908cbe6b9efa3516ce0",
      "function": "grantRole(bytes32,address)",
      "arguments": [
        "0x9f2df0fed2c77648de5860a4cc508cd0818c85b8b8a1ab4ceeef8d981c8956a6",
        "0x539be46D9E2d9FA93f54944216BEf6e6A0f6a952"
      ],
      "transaction": {
        "from": "0x337adefa859e38f297adf7feac1725c55e1309f8",
        "to": "0xf16224acdcf403fb1de39908cbe6b9efa3516ce0",
        "gas": "0x118ce",
        "value": "0x0",
        "input": "0x2f2ff15d9f2df0fed2c77648de5860a4cc508cd0818c85b8b8a1ab4ceeef8d981c8956a6000000000000000000000000539be46d9e2d9fa93f54944216bef6e6a0f6a952",
        "nonce": "0x1d",
        "chainId": "0xaa36a7"
      },
      "additionalContracts": [],
      "isFixedGasLimit": false
    },
    {
      "hash": "0x0756794831ba57910120b484ba16941924171cee68bd4d6f862cc87424c4f818",
      "transactionType": "CALL",
      "contractName": null,
      "contractAddress": "0xf16224acdcf403fb1de39908cbe6b9efa3516ce0",
      "function": "revokeRole(bytes32,address)",
      "arguments": [
        "0x9f2df0fed2c77648de5860a4cc508cd0818c85b8b8a1ab4ceeef8d981c8956a6",
        "0xF9827Be4443776Dd0e349c1978934EDf0b74fbe7"
      ],
      "transaction": {
        "from": "0x337adefa859e38f297adf7feac1725c55e1309f8",
        "to": "0xf16224acdcf403fb1de39908cbe6b9efa3516ce0",
        "gas": "0xa2c4",
        "value": "0x0",
        "input": "0xd547741f9f2df0fed2c77648de5860a4cc508cd0818c85b8b8a1ab4ceeef8d981c8956a6000000000000000000000000f9827be4443776dd0e349c1978934edf0b74fbe7",
        "nonce": "0x1e",
        "chainId": "0xaa36a7"
      },
      "additionalContracts": [],
      "isFixedGasLimit": false
    }
  ],
  "receipts": [
    {
      "status": "0x1",
      "cumulativeGasUsed": "0x1dd9e48",
      "logs": [
        {
          "address": "0x539be46d9e2d9fa93f54944216bef6e6a0f6a952",
          "topics": [
            "0x8be0079c531659141344cd1fd0a4f28419497f9722a3daafe3b4186f6b6457e0",
            "0x0000000000000000000000000000000000000000000000000000000000000000",
            "0x000000000000000000000000337adefa859e38f297adf7feac1725c55e1309f8"
          ],
          "data": "0x",
          "blockHash": "0xf7ffcc2bed3fdf4a78c7b465f282cd8281289693b6def08583ff083d999da31b",
          "blockNumber": "0x86f228",
          "blockTimestamp": "0x68844c18",
          "transactionHash": "0x9ff19b88bfe80e982b58bc48f8a5ab164c64c35d23c51a5311754bd24109cfc5",
          "transactionIndex": "0x15d",
          "logIndex": "0x382",
          "removed": false
        }
      ],
      "logsBloom": "0x00000000000000000000000000000000000000000000000000800000040000000000000000000000000000000000000000000000000000000000000000000000000000000000000000000000000000002001000000004000000000000000000000000000020000000000000000000800000000000000000000000000000000400000000400000000000000000000000020000000000000000000000000000000000000000000000000000000000000000000000000000000000000000000000000000000000000000000000000000000000000000000000000000000000020000000000000000000000000000000000000080000000000000000000000000000",
      "type": "0x2",
      "transactionHash": "0x9ff19b88bfe80e982b58bc48f8a5ab164c64c35d23c51a5311754bd24109cfc5",
      "transactionIndex": "0x15d",
      "blockHash": "0xf7ffcc2bed3fdf4a78c7b465f282cd8281289693b6def08583ff083d999da31b",
      "blockNumber": "0x86f228",
      "gasUsed": "0xf9817",
      "effectiveGasPrice": "0xfa91f",
      "from": "0x337adefa859e38f297adf7feac1725c55e1309f8",
      "to": null,
      "contractAddress": "0x539be46d9e2d9fa93f54944216bef6e6a0f6a952"
    },
    {
      "status": "0x1",
      "cumulativeGasUsed": "0x1de1500",
      "logs": [
        {
          "address": "0x97d3d998e4d05a5b22a31d01ff066dd9890ce205",
          "topics": [
            "0x6fca2e06bb34845f84427e65445730e7e00faf72ad37f6485b24de98f103bb06",
            "0x000000000000000000000000539be46d9e2d9fa93f54944216bef6e6a0f6a952"
          ],
          "data": "0x",
          "blockHash": "0xf7ffcc2bed3fdf4a78c7b465f282cd8281289693b6def08583ff083d999da31b",
          "blockNumber": "0x86f228",
          "blockTimestamp": "0x68844c18",
          "transactionHash": "0x29d80813684877a9e717255e5c43074902cc5f69ea6bb844b358128766febf99",
          "transactionIndex": "0x15e",
          "logIndex": "0x383",
          "removed": false
        }
      ],
      "logsBloom": "0x00000000000000000000000000000000000000000000000000200000000000000000000000000000000000000000000000000000000000000000000000000000008000000000000000000000000000000000000000000000000000000000000000000000000000020000000000000000000000000000000000000000000000000000000000000000000000000000000000000000020000000000000000000000000000000000000000000000000000000000000000000000000400200000000000000000000000000000000000000000000000000000000201000000000000000000000000000000000000000000000000000000004000000000000000000000",
      "type": "0x2",
      "transactionHash": "0x29d80813684877a9e717255e5c43074902cc5f69ea6bb844b358128766febf99",
      "transactionIndex": "0x15e",
      "blockHash": "0xf7ffcc2bed3fdf4a78c7b465f282cd8281289693b6def08583ff083d999da31b",
      "blockNumber": "0x86f228",
      "gasUsed": "0x76b8",
      "effectiveGasPrice": "0xfa91f",
      "from": "0x337adefa859e38f297adf7feac1725c55e1309f8",
      "to": "0x97d3d998e4d05a5b22a31d01ff066dd9890ce205",
      "contractAddress": null
    },
    {
      "status": "0x1",
      "cumulativeGasUsed": "0x1dee04d",
      "logs": [
        {
          "address": "0xf16224acdcf403fb1de39908cbe6b9efa3516ce0",
          "topics": [
            "0x2f8788117e7eff1d82e926ec794901d17c78024a50270940304540a733656f0d",
            "0x9f2df0fed2c77648de5860a4cc508cd0818c85b8b8a1ab4ceeef8d981c8956a6",
            "0x000000000000000000000000539be46d9e2d9fa93f54944216bef6e6a0f6a952",
            "0x000000000000000000000000337adefa859e38f297adf7feac1725c55e1309f8"
          ],
          "data": "0x",
          "blockHash": "0xf7ffcc2bed3fdf4a78c7b465f282cd8281289693b6def08583ff083d999da31b",
          "blockNumber": "0x86f228",
          "blockTimestamp": "0x68844c18",
          "transactionHash": "0x7f74c58fe31899b6f28031f7788b7e76740986aad7c443e9a545bc9bd3dcd48c",
          "transactionIndex": "0x15f",
          "logIndex": "0x384",
          "removed": false
        }
      ],
      "logsBloom": "0x00000804000000000000000000000000000000000000000000000000000000000000000000000000000000000000004000000000000000000000000000000000000000000000000000000000000000002000000000000000000000000000000000000000000000000000000000000000000000000000000000000000001000000000000000000020000000000000000020000000020000000000000000000000000000000000000000000000000000000000000000000000001000000000000000000000000020000000000000000000001000000000000301000000000000000000000000000000000000000000000000080000000000000000000000000000",
      "type": "0x2",
      "transactionHash": "0x7f74c58fe31899b6f28031f7788b7e76740986aad7c443e9a545bc9bd3dcd48c",
      "transactionIndex": "0x15f",
      "blockHash": "0xf7ffcc2bed3fdf4a78c7b465f282cd8281289693b6def08583ff083d999da31b",
      "blockNumber": "0x86f228",
      "gasUsed": "0xcb4d",
      "effectiveGasPrice": "0xfa91f",
      "from": "0x337adefa859e38f297adf7feac1725c55e1309f8",
      "to": "0xf16224acdcf403fb1de39908cbe6b9efa3516ce0",
      "contractAddress": null
    },
    {
      "status": "0x1",
      "cumulativeGasUsed": "0x1df5625",
      "logs": [
        {
          "address": "0xf16224acdcf403fb1de39908cbe6b9efa3516ce0",
          "topics": [
            "0xf6391f5c32d9c69d2a47ea670b442974b53935d1edc7fd64eb21e047a839171b",
            "0x9f2df0fed2c77648de5860a4cc508cd0818c85b8b8a1ab4ceeef8d981c8956a6",
            "0x000000000000000000000000f9827be4443776dd0e349c1978934edf0b74fbe7",
            "0x000000000000000000000000337adefa859e38f297adf7feac1725c55e1309f8"
          ],
          "data": "0x",
          "blockHash": "0xf7ffcc2bed3fdf4a78c7b465f282cd8281289693b6def08583ff083d999da31b",
          "blockNumber": "0x86f228",
          "blockTimestamp": "0x68844c18",
          "transactionHash": "0x0756794831ba57910120b484ba16941924171cee68bd4d6f862cc87424c4f818",
          "transactionIndex": "0x160",
          "logIndex": "0x385",
          "removed": false
        }
      ],
      "logsBloom": "0x00000800000000000000000000000000000000000000000000000000000000000000000000000000000000000000004000200000000000000000000000000000000000000020000200000000000000002000000000000000000000000000000040000000000000000000000000000000000000000000000000000000001000000000000040000020000000000000000020000000000000000000000000000000000000000000000000000000000000000000000000000000000000000000000000000000000020000000000000000000001000000000000000000000000000000000000000000000000000000008000000080000000000000000000000000000",
      "type": "0x2",
      "transactionHash": "0x0756794831ba57910120b484ba16941924171cee68bd4d6f862cc87424c4f818",
      "transactionIndex": "0x160",
      "blockHash": "0xf7ffcc2bed3fdf4a78c7b465f282cd8281289693b6def08583ff083d999da31b",
      "blockNumber": "0x86f228",
      "gasUsed": "0x75d8",
      "effectiveGasPrice": "0xfa91f",
      "from": "0x337adefa859e38f297adf7feac1725c55e1309f8",
      "to": "0xf16224acdcf403fb1de39908cbe6b9efa3516ce0",
      "contractAddress": null
    }
  ],
  "libraries": [],
  "pending": [],
  "returns": {},
  "timestamp": 1753500720,
  "chain": 11155111,
  "commit": "4b641a8"
}